:020000040800F2
:10000000E00A002061020008690200086B02000893
:100010006D0200086F020008710200080000000075
:100020000000000000000000000000007302000853
:10003000750200080000000077020008790200083D
:100040007B0200087B0200087B0200087B0200089C
:100050007B0200087B0200087B0200087B0200088C
:100060007B0200087B0200087B0200087B0200087C
:100070007B0200087B0200087B0200087B0200086C
:100080007B0200087B0200087B0200087B0200085C
:100090007B0200087B0200087B0200087B0200084C
:1000A0007B0200087B0200087B0200087B0200083C
:1000B0007B0200087B0200087B0200087B0200082C
:1000C0007B0200087B0200087B0200087B0200081C
:1000D0007B020008593100087B0200087B020008FF
:1000E0007B0200087B0200087B02000800F002F897
:1000F00000F0A6F814A696E8000CB244B344DA4522
:1001000001D100F09DF8BAE80F000FA696E8300084
:10011000A5EB040504EB0607AAEB0704A7F101070A
:100120004FEA15154FEA3414A4F10104AC4201D38F
:1001300000F086F813F0010F18BFFB1A43F001031B
:1001400000F001F8DBE71847DC5A0000FC5A000019
:10015000103A24BF78C878C1FAD8520724BF30C8F3
:1001600030C144BF04680C60704700007047000055
:100170000023002400250026103A28BF78C1FBD8B0
:10018000520728BF30C148BF0B6070476E2900F08E
:100190008D81702900F0CF82662904F0728765296D
:1001A00004F06F87672904F06C87612904F06B877E
:1001B00003681B0A28BF41F08001692900F03A81D9
:1001C000642900F03781752900F034816F2900F02F
:1001D0005D82782900F09B82E92900F0F781E4290B
:1001E00000F0F481F52900F0F181EF2900F05A8246
:1001F000F82900F09A820368DB0928BF41F08001EA
:10020000632900F0DF87732900F0E487E32900F019
:10021000EF87F32900F0F487002070471FB501F045
:100220008BF804000020002103F0CCFE401C60602D
:100230000020002103F0DCFEE0601FBD10B510BD02
:1002400001F055F81146FFF7E9FF03F0D1F901F08D
:1002500037F903B4FFF7F2FF03BC01F03BF90000EC
:100260000948804709480047FEE7FEE7FEE7FEE74A
:10027000FEE7FEE7FEE7FEE7FEE7FEE70448054986
:10028000054A064B70470000F1300008ED000008F9
:10029000E0040020E00A0020E0060020E006002044
:1002A0001CB50C46064B7B4469460090204600F086
:1002B00016F904460020694600F024F920461CBDCA
:1002C0005B02000070B5064600F04EF80468054673
:1002D00030460A22002100F0FDFA2C6070BD0000BB
:1002E0004FF0013C50F8042B51F8043B9A4221D1C5
:1002F000A2EB0C03934313EACC1317D150F8042B51
:1003000051F8043B9A4215D1A2EB0C03934313EA34
:10031000CC130BD150F8042B51F8043B9A4209D16D
:10032000A2EB0C03934313EACC13DBD04FF0000095
:10033000704700BFD01A01BAB1FA81F101F018017B
:1003400022FA01F0CB40DBB2C0B2C01AC1F12001E9
:100350002CFA01F3D11A914311EAC311E6D1704787
:100360007047704770470000004870470800002041
:1003700070B5044685690068C10601D5302600E0E5
:100380002026C00707D070BDD4E901213046904730
:10039000206A401C20626D1EF6D570BD70B5044603
:1003A00085690078C00707D170BDD4E901212020FC
:1003B0009047206A401C20626D1EF6D570BD09680A
:1003C0004A0501D540B27047C905FCD500B2704757
:1003D00009684A0501D5C0B27047C905FCD580B28D
:1003E000704770B50C460546012A05D0287880066E
:1003F00000D5EA69002302E0012305E05B1C93427B
:1004000002D2E05C0028F9D1A869E618C01AA861F8
:10041000286A184428622846FFF7AAFF04E0D5E9B5
:10042000012114F8010B9047B442F8D32846FFF796
:10043000B5FF70BD2DE9F04106460024106875290E
:10044000314616A510D0FFF7BAFF002802DA404265
:1004500013A507E031688A0701D512A502E0490714
:1004600004D511A5012401E0FFF7B2FF00210A2203
:1004700006F1240709E0B0FBF2FCB0FBF2F302FB4B
:100480001C00303078541846491C0028F3D123460C
:100490002A463046BDE8F04100F0A5BA0000000051
:1004A0002D0000002B0000002000000011680268F1
:1004B000006A530501D508700AE0D30501D508800C
:1004C00006E0130603D5C217C1E9000200E0086088
:1004D0000120704701694A1C02610878704700B525
:1004E0008FB0CDE901310021059105497944CDE96D
:1004F00003101146684600F029F90FB000BD000056
:10050000E5FFFFFF0A6802F8010B0A607047000070
:100510002DE9FF5F15468A460446DFF8AC80F844B3
:100520000027D8E900103E46CDE9001010E03AF867
:1005300016106A4602A800F0B6FE411C07D02178CA
:10054000890603D5E269391891420DD80744761C13
:100550002078800602D5E069B84205DDAE42E6DBD0
:100560003AF816000028E2D1A069C01BA06120461D
:10057000FFF7FEFED8E90010CDE90010002017E0DB
:100580003AF818106A4602A800F08DFEB0F1FF3F5D
:1005900081460BD000250DF1080B05E0D4E90121BF
:1005A0001BF8050090476D1C4D45F7D308F101007D
:1005B000B0428046E4DB206A384420622046FFF7E0
:1005C000EDFEBDE8FF9F00006A4B00002DE9F04101
:1005D0008046D21D22F007020025D2E90002F5294B
:1005E00015A614D0011E72F1000106DA0023D0EB2B
:1005F000030063EB020211A608E0D8F800108B0795
:1006000001D50FA602E0490701D50EA60125114626
:10061000002408F1240704E000F0A0F930323A5534
:10062000641C50EA0102F7D12B463246214640466F
:10063000BDE8F04100F0D7B9000000002D00000037
:100640002B0000002000000030B4002100F1240441
:1006500008E002F00705D208303542EA4372DB08B1
:100660006554491C52EA0305F3D10468002310A223
:10067000250708D504F020040C4304D0C4690123E5
:100680000CA2641EC46130BC00F0ADB910B50446C4
:1006900021461068FFF79CFE02462046BDE8104048
:1006A0000023D1E7D21D22F00701D1E90023CBE7D7
:1006B0000000000030000000F0B40D46018809057C
:1006C00002D5214C7C4402E01F4C7C440E340021B6
:1006D00000F1240608E002F00F071209E75D42EA84
:1006E00003721B097754491C52EA0307F3D10278BD
:1006F0000023120704D5702D06D009B1022311344E
:100700002246F0BC00F06FB901231034F8E770B551
:1007100004460D4621461068FFF75AFE0246294658
:100720002046BDE870400023C6E7D21D22F0070333
:10073000D3E90023C0E70368126843F02003036095
:100740000823C3610023B7E7CC4900002DE9F05F1F
:10075000894604464FF0000ADFF874B1FB44C0F844
:1007600020A02046E1688847002874D0252806D0BC
:10077000D4E901219047206A401C2062F1E700265D
:100780005F462046E16888472028054607DB312D73
:1007900005D2781910F8200C08B10643F1E7B0072C
:1007A00001D526F00406C4F81CA00027C4F818A040
:1007B0002A2D09D0284603F0B3FB38B304EB870891
:1007C000303DC8F8185019E059F8041B204604EBD6
:1007D00087029161E1688847012F054618D1E069D9
:1007E000002820DA26F020061DE0D8F8180000EBDB
:1007F000800005EB40003038C8F818002046E1685A
:100800008847054603F08CFB0028EED1012F0AD063
:100810002E2D08D12046E16888477F1C0546022F0F
:1008200046F02006C4DBA069002803DA404246F007
:100830000106A061F00701D026F010066C2D0BD048
:10084000682D09D04C2D39D06A2D35D0742D35D076
:100850007A2D33D016E038E0E1682F4620468847ED
:10086000B842054609D16C2F26D04FF48060E1686C
:10087000064320468847054604E06C2F1AD04FF403
:10088000807006430DB3A5F14100192802D8203528
:1008900046F400664A462946204626604E46FFF743
:1008A00075FC80B101280BD0F61D26F0070000F181
:1008B000080956E74020E4E78020D8E70020D6E783
:1008C00006F104094DE7284652E7206ABDE8F09F8B
:1008D0005C4900002DE9F04791460F4680460446EA
:1008E000002614F8015B2DB100F030F80068405D7F
:1008F000C007F6D12B2D02D02D2D18D0641E4A46EC
:100900003946204600F080FC27B13968A14201D168
:10091000C7F800804FF0020471050BD54042002853
:1009200003DDFFF721FD0460A007BDE8F08746F472
:100930008066E4E70028F8DAFFF716FD04606FF040
:100940000040F2E7004870470800002010B500F0B2
:10095000F3FC001D10BD00BF6D36000030B5B0F1D6
:100960000A0271F100034FEA900E4EEA817EB0EB6D
:100970000E0061EB91014FEA101E4EEA017E10EB72
:100980000E0041EB11114FEA102E4EEA016E10EBF2
:100990000E0041EB11214FEA104E4EEA014E10EBD2
:1009A0000E0041EB1141401841F100014FEAD00027
:1009B00040EA41704FEAD1014FEA810444EA907461
:1009C00010EB800544EB01046D1944EB0404521B49
:1009D000A3414FF0000348BF0A3200D530BD401C90
:1009E00041F1000130BD2DE9F0470D469946924690
:1009F000044600F124080168880604D5E06921F066
:100A00001001216000E00120A84201DD471B00E049
:100A10000027A1697A1902EB0900081AA061207861
:100A2000C00602D42046FFF7A3FC002608E0D4E964
:100A300001211AF806009047206A401C761C2062AB
:100A40004E45F4DB2078C0060AD52046FFF790FC1F
:100A500006E0D4E9012130209047206A401C206242
:100A6000381EA7F10107F4DC07E0D4E9012118F8EA
:100A700005009047206A401C2062281EA5F1010550
:100A8000F3DC2046FFF78AFC2078000602D502201E
:100A9000BDE8F0870120FBE72DE9FF4F0C461E461D
:100AA0004FF0FF378BB0D2E90001DDF860800A908B
:100AB0008A46C1F30A5505B93D46002108464FF064
:100AC0000000BAF1000F00F4400005DA00EB8000EE
:100AD0004FF4400101EA50004FEA9059B9F1010F7B
:100AE00000DDB9460A9850EA4A000ED044F610508C
:100AF000A5F2FF3545432F14B8F1000F1ED0754203
:100B0000291E1EDDC9F100021CE0B8F1010F4FF0F3
:100B1000000001D0302103E0F24305E02154401CE5
:100B2000B042FBDB30460022002121540B99C1F872
:100B30000880C1E900200FB0BDE8F08FBD1B6D1C1F
:100B4000DEE74A4600DA694206A800F047FC06AB39
:100B500093E8070003AB83E8070050460A9902F0C8
:100B600002FE8DE80700A0F500501F3800900398A2
:100B7000002D0ADD42F21F014A460844002303A962
:100B80000390684603F06CF809E0A0F500504A466F
:100B90001F38002303A90390684603F076F88DE818
:100BA00007000004000C03D04FF0FF30410800E0C4
:100BB0001046B8F1000F03D00022009215461EE047
:100BC000751E05D4FFF7CAFE303262556D1EF9D589
:100BD000B3460122084302D000227F1C04E02078A3
:100BE000302801D100227F1E002A099784D01DE001
:100BF000112D07DAFFF7B2FE303262556D1C50EA54
:100C00000102F5D1084302D00098C8B10EE00021DE
:100C1000681E05E0235C625C63542254401E491C3C
:100C20008142F7DBAB46A81B401E0990002004F868
:100C30000B000B98099AC0F80880C0E9002B7AE7EE
:100C400011264FF0000857E72DE9F04F884604467B
:100C5000D21D22F0070191B0D1E90001CDE90A01CE
:100C600003F04AF902460B98C00F01D02D2007E08F
:100C70002068810701D52B2002E0202101EAC00075
:100C8000032A099001D0072A05DB03464146204686
:100C900000F056FB0BE12078800601D5E06900E00A
:100CA0000620B8F1650F814606D0B8F1660F18D05E
:100CB000B8F1670F70D131E00020B9F1110F009049
:100CC00001DB112301E009F101030AAA01A90CA823
:100CD000FFF7E2FEDDE90C70002609F1010583460D
:100CE00047E001204B4600904FF000470AAA01A9B7
:100CF0000CA8FFF7D1FEDDE90DB00C995D4600268A
:100D000010B909F101000D18B9EB050003D4C0F1C9
:100D1000FF3609F10105A5EB09002BE0B9F1010F40
:100D200001DA4FF001090020B9F1110F0090484697
:100D300001DD112300E003460AAA01A90CA8FFF770
:100D4000ABFEDDE90C704D46002683462078000797
:100D50000AD4AB4500DA5D4601A8012D04DD411936
:100D600011F8011C302907D04F4502DA17F1040FA2
:100D700004DA012082460FE06D1EEEE7002F02DC50
:100D8000ED1B3E4403E0781CA84200DD7D1CB81B2F
:100D900000F1010A4FF000472078000703D4AA456C
:100DA00001DB4FF0FF3A0021B7F1004F0DF143088E
:100DB0008DF8431024D002202B23002F01DA7F422C
:100DC0002D230A21021EA0F1010000DC5FB197FB78
:100DD000F1FC97FBF1F201FB1C7C17460CF1300C87
:100DE00008F801CDEEE7A8F101000370218809059C
:100DF00001D5452100E06521A0F1010800F8011CA2
:100E000009980FA9A1EB0807FF1D00B101204119A6
:100E100001EBEA70A1693844081A401EA0612078ED
:100E2000C00602D42046FFF7A3FA099828B1D4E9F6
:100E300001219047206A401C20622078C00622D5FC
:100E40002046FFF795FA1EE0002E04DBB34502DDD5
:100E500001A8805D00E03020D4E901219047206A9C
:100E6000401C2062761CAAF101005FEA000A0AD148
:100E700000F062FAC0680168405CD4E90121904743
:100E8000206A401C2062281EA5F10105DCDC07E079
:100E9000D4E9012118F8010B9047206A401C206218
:100EA000381EA7F10107F3DC2046FFF777FA03208D
:100EB00011B041E62DE9F04F04460D46D21D22F057
:100EC000070089B0D0E900974846394603F014F886
:100ED0000246F80F01D02D2307E02068810701D5D5
:100EE0002B2302E0202101EAC0038DF820300BB152
:100EF000012000E00020032A824601D0072A04DBFB
:100F00002946204600F01CFA3FE12078800601D4F3
:100F10000D2500E0E569C7F30A560D2D49DA0021D9
:100F20004FEA175B08464FF00000002F00F4400026
:100F300007DA00EB80004FF4400100EBD07001EACB
:100F400060008115012901DD4FF0FF3100224FEAD9
:100F5000850CBCF1180F06D31346ACF118004FF006
:100F60008052C24003E04FF4801323FA0CF30CF1DB
:100F70000C0CBCF1200F04D3ACF1200C09FA0CF0DE
:100F800001E007FA0CF000294FF0004801DD18B924
:100F90000FE00ED140450CD319EB02095F4121B996
:100FA000404502D19F4329EA0209BBEB175F00D0FD
:100FB000761C2088000502D57B48784402E07A48F8
:100FC0007844193808AA302302F80A30037C0AF161
:100FD0000101002E0AF1020A53546A4602DC4FF066
:100FE000300101E04FF031014FF001088DF80010A1
:100FF00002D0A6F2FF3603E059EA470100D06B4E5B
:10100000002D02DC2178090704D54FF002082E21BB
:101010008DF80110C44600210BE0C7F303433F01E4
:10102000C35C491C6D1E02F80830052908F101084F
:1010300001DA002DF1DC00210CE000EB1973491CF2
:101040001B786D1E082902F808304FEA091908F1CB
:10105000010801DA002DF0DC21688B0602D516E0CC
:10106000A8F10108E04505DD02EB080313F8013C97
:10107000302BF5D0B8F1000F09DD02EB080313F8AF
:10108000013C2E2B03D1090701D4A8F10108002D42
:1010900005DD3E2102F808106D1E08F10108407CB4
:1010A000002E02F8080008F1010804DA2D2076422B
:1010B00002F8080002E02B2002F808000A214FF491
:1010C0007A70864208F101080BDB96FBF0F33033AF
:1010D00002F8083096FBF0F308F1010800FB1366F4
:1010E00001E0642E0CDB642096FBF0F3303302F851
:1010F000083096FBF0F308F1010800FB136601E0ED
:101100000A2E06DB96FBF1F0303002F8080008F1F9
:10111000010896FBF1F001FB1060303002F8080086
:10112000A16908F1010808EB050202EB0A00081AA0
:10113000A0612078C00602D42046FFF719F9216A81
:1011400008AE01EB0A00206204E0D4E9012116F8A0
:10115000010B9047BAF1010AF7D22078C00602D5F8
:101160002046FFF705F96E4609E016F8010B3E2808
:101170000FD0D4E901219047206A401C2062B8F1C9
:101180000108F2D22046FFF709F909B00320BDE8B3
:10119000F08F206A2844206203E0D4E90121302046
:1011A00090476D1EEBD3F8E72241000002FCFFFFE1
:1011B00010B5436913B1AFF3008001E0FFF711F9F7
:1011C000012010BD127800F124010A7000224A703B
:1011D0000122EDE711684FF0FF32E9E710B54369EE
:1011E00013B1AFF3008001E0FFF792F9012010BDC9
:1011F000128800F1240182840022C2840122EDE7DA
:1012000011684FF0FF32E9E72DE9F05F824615469D
:101210008B4600270AF10104B9460078302801D036
:101220009DB113E014F8010B0127782803D058284A
:1012300001D045B10AE00DB1102D07D1002714F8F7
:10124000010B102502E0082500E00A250026B04623
:101250000EE005FB080005FB06F101271FFA80F8E8
:1012600001EB1046B6F5803F00D3B94614F8010BE8
:10127000294600F0A5F80028EBDABBF1000F05D0F5
:101280000FB1641E00E05446CBF80040B9F1000FE6
:1012900006D0FFF769F802210160C81EBDE8F09F83
:1012A00048EA0640FAE72DE9F04116460C460546A5
:1012B000FFF74CFB036893F80101012807D0FF2CCE
:1012C00012D8185D80B101202C70BDE8F081D3F8F0
:1012D00007013246214603F20713C7182846BC46C9
:1012E000BDE8F041002360474FF0FF30EDE7754661
:1012F000FFF728FBAE4605006946534620F007007D
:10130000854618B020B5FEF7B9FFBDE820404FF084
:1013100000064FF000074FF000084FF0000BAC46FE
:10132000ACE8C009ACE8C009ACE8C009ACE8C00949
:1013300021F007018D4670470048704728000020C3
:101340002DE9F0411F46044603260168072A01F4EF
:10135000006004DB08B116A505E016A503E008B19E
:1013600015A500E015A521F010002060A069C01EA1
:10137000A0610FB1401EA0612046FEF7F9FF4FB1FA
:10138000D4E9012138469047206A401C2062C01CE5
:10139000206206E0206AFAE7D4E9012115F8010B82
:1013A0009047761EF8D22046FEF7F8FFBDE8F081A0
:1013B0004E414E006E616E00494E4600696E6600F9
:1013C0003A2800D2303820F02002412A01D3A2F17D
:1013D0003700884201D34FF0FF3070472DE9F047C6
:1013E000814616468AB0354878440DC88DE80D0010
:1013F00032487844801C03AC0DC884E80D0041F6E7
:101400009B300844372190FBF1F290FBF1F5A5F1F8
:10141000800501FB12041B3C02D56442012000E060
:101420000020DFF898A080460027FA44AAF1BE0AFF
:101430000EE0E0070AD03246684607EB4701012379
:101440000AEB810102F021FC8DE8070064107F1C8B
:10145000002CEED1194F7F44AE3F19E0E80715D0BC
:1014600007EB04100DF1180A90E80E008AE80E0050
:10147000C068F04201D1981908903246012306A9AC
:1014800003A802F002FC03AB83E807006D10641CA4
:10149000002DE3D14FF0010332466946B8F1000F49
:1014A00003A802D002F0DCFB01E002F0EEFBC9E988
:1014B0000001C9F808200AB0BDE8F087843D0000AB
:1014C00010B50446AFF300802046BDE81040FEF79B
:1014D000C0BE000001491820ABBEFEE72600020096
:1014E0007047000082B001908DF803109DF8030052
:1014F00030B1FFE70199886840F00100886005E09D
:101500000199886820F001008860FFE702B0704709
:1015100082B0019000208DF8030001988068400798
:10152000002804D5FFE701208DF8030003E0002028
:101530008DF80300FFE79DF8030002B0704700003C
:1015400081B000900098C06C80B201B0704700007C
:1015500082B001908DF8031000208DF802000198F0
:1015600000689DF80310084204D0FFE701208DF8C1
:10157000020003E000208DF80200FFE79DF8020062
:1015800002B0704782B0019000208DF803000198EE
:1015900080680007002804D5FFE701208DF80300CC
:1015A00003E000208DF80300FFE79DF8030002B080
:1015B0007047000084B003900291002001908DF8E4
:1015C000030003984068019001984FF6FF61CFF641
:1015D000F0710840019002990868097940EA0121F8
:1015E0000198084301900198039948600398806826
:1015F000019001984FF2FD71CFF6F1710840019012
:101600000299C8688A681043497940EA4101019803
:10161000084301900198039988600398C06A01907B
:10162000019820F4700001900298007C411E9DF802
:10163000030008438DF803009DF80310019840EA69
:101640000150019001980399C86204B070470000EE
:1016500084B003908DF80B108DF80A208DF80930B6
:101660000020019000909DF80B000A2821DBFFE785
:101670000398C06801909DF80B0000EB4000A0F1BA
:101680001E0107208840009000990198884301902E
:101690009DF809009DF80B1001EB41011E398840AF
:1016A0000090009901980843019001980399C8603F
:1016B0001DE00398006901909DF80B0000EB4001CC
:1016C00007208840009000990198884301909DF878
:1016D00009009DF80B1001EB410188400090009932
:1016E000019808430190019803990861FFE79DF86C
:1016F0000A00062820DCFFE70398406B01909DF864
:101700000A0000EB8000411F1F20884000900099D4
:101710000198884301909DF80B009DF80A1001EB99
:101720008101053988400090009901980843019093
:1017300001980399486347E09DF80A000C2821DCD2
:10174000FFE70398006B01909DF80A0000EB800012
:10175000A0F123011F208840009000990198884340
:1017600001909DF80B009DF80A1001EB81012339CF
:1017700088400090009901980843019001980399CE
:10178000086320E00398C06A01909DF80A0000EB0E
:101790008000A0F141011F2088400090009901982D
:1017A000884301909DF80B009DF80A1001EB810120
:1017B00041398840009000990198084301900198B0
:1017C0000399C862FFE7FFE704B0704781B000905B
:1017D0000099886840F00800886001B070470000F8
:1017E00082B001908DF803109DF8030030B1FFE73F
:1017F0000199886840F4A000886005E00199886834
:1018000020F4A0008860FFE702B0704781B000902C
:101810000099886840F00400886001B070470000BB
:1018200080B584B08DF80F009DF80F1042F2004093
:10183000C4F201000190012202920523FFF708FF84
:1018400001980299FFF7CCFFFFE742F20040C4F293
:1018500001000221FFF77CFE08B9FFE7F5E742F23D
:101860000040C4F20100FFF76BFE04B080BD000031
:1018700080B58AB04FF400700121029101F06CF93B
:101880000299042001F068F94FF4004001F04EF98C
:10189000002001908DF827000320ADF824008DF87A
:1018A000260040F60000C4F2010009A900F038FA51
:1018B00001990298049107914FF4602206928DF8E5
:1018C00015108DF814108DF8200042F20040C4F27B
:1018D0000100039004A9FFF76DFE02990398FFF73A
:1018E00001FE0398FFF772FFFFE742F20040C4F2E7
:1018F0000100FFF747FE012801D1FFE7F5E742F2BB
:101900000040C4F20100FFF781FFFFE742F2004010
:10191000C4F20100FFF7FCFD012801D1FFE7F5E764
:101920000AB080BD80B582B040F2D840C2F200005B
:101930000068019040F20000C2F20000006803F06D
:10194000CBF90146019803F027FB002103F0BBF817
:1019500018B9FFE701F0FAF902E001F0EDF9FFE74D
:1019600002B080BD80B584B000F032F900F074F8A8
:10197000CC20019000F048F9442000F045F900F037
:1019800027F900F069F8019800F03EF9BE2000F058
:101990003BF900F0F7F88DF80E0000F0F3F88DF841
:1019A0000F009DF80F000002ADF80C00BDF80C0010
:1019B0009DF80E100843ADF80C00BDF90C00B0F115
:1019C000FF3F0FDCFFE7BDF90C00404202F075FC61
:1019D00000220023C3F6B07302F012FD02F01EFBDA
:1019E00002900DE0BDF90C0002F067FC002200231C
:1019F000C3F6B07302F004FD02F010FB0290FFE7A3
:101A0000029804B080BD000080B582B04FF48050D1
:101A1000ADF8040048208DF8070040F60040C4F2FD
:101A2000010001A900F07CF902B080BD80B582B050
:101A30004FF48050ADF8040010208DF8070003200B
:101A40008DF8060040F60040C4F2010001A900F044
:101A500067F902B080BD000080B584B000208DF829
:101A60000E00FFF7D1FFFFE740F60040C4F201008F
:101A70004FF4805100F018FA01460020029041B165
:101A8000FFE79DF80E1000206429B8BF01200290E6
:101A9000FFE70298C00748B1FFE79DF80E0001304C
:101AA0008DF80E00012000F011F9DDE79DF80E0021
:101AB000642804DBFFE701208DF80F0033E00020ED
:101AC0008DF80E00FFE7FFE740F60040C4F201008A
:101AD0004FF4805100F0E8F901460020019041B92F
:101AE000FFE79DF80E100020F029B8BF01200190FB
:101AF000FFE70198C00748B1FFE79DF80E000130ED
:101B00008DF80E00012000F0E1F8DDE79DF80E00F1
:101B1000F02804DBFFE701208DF80F0003E0002030
:101B20008DF80F00FFE79DF80F0004B080BD0000A6
:101B300080B584B0FFF77AFF40F60040C4F20100A0
:101B400001904FF48051029100F0C8F90A2000F092
:101B5000BDF8FFF759FF0198029900F0A5F9012897
:101B600004D1FFE701208DF80F0003E000208DF87D
:101B70000F00FFE72D2000F0A9F89DF80F0004B03A
:101B800080BD000080B582B000208DF805008DF882
:101B90000700FFE79DF80700072815DCFFE7FFF7C0
:101BA000C7FF8DF806009DF805009DF806109DF80A
:101BB0000720914008438DF80500FFE79DF80700D6
:101BC00001308DF80700E5E79DF8050002B080BD03
:101BD00080B582B0FFF72AFF40F60040C4F2010052
:101BE00000904FF48051019100F078F940F2EE201E
:101BF00000F06CF80098019900F07AF90F2000F0DD
:101C000065F802B080BD000080B586B08DF8170081
:101C1000FFF70CFF00208DF81600FFE79DF8160077
:101C2000072840DCFFE79DF8170000F001008DF861
:101C300015009DF8170040088DF817009DF8150055
:101C4000A8B1FFE740F60040C4F2010003904FF452
:101C50008051049100F042F9082000F037F8039811
:101C6000049900F045F93A2000F030F814E040F60D
:101C70000040C4F2010001904FF48051029100F045
:101C80002DF9462000F022F80198029900F030F971
:101C9000022000F01BF8FFE7FFE79DF81600013077
:101CA0008DF81600BAE706B080BD000080B582B09E
:101CB0000190FFE70198411E019128B1FFE74FF421
:101CC0007A7000F003F8F5E702B080BD81B00090B3
:101CD000009800EBC000C0004EF21401CEF20001EB
:101CE00008604EF21801CEF20001002008604EF2AA
:101CF0001001CEF2000105200860FFE74EF210004F
:101D0000CEF200000068C003002801D4FFE7F5E729
:101D10004EF21001CEF200010420086001B07047BD
:101D200088B00790069100200590049003900290DF
:101D3000019000900698C07800F00F00059006987A
:101D4000C078C006002806D5FFE706988178059878
:101D500008430590FFE70698007800284BD0FFE77E
:101D600007980068019000200390FFE70398072878
:101D70003DD8FFE70399012088400290069800882B
:101D80000299084004900498029988422AD1FFE7FA
:101D900003988000029002990F20884000900099DB
:101DA0000198884301900598029900FA01F1019881
:101DB000084301900698C078282806D1FFE70399C8
:101DC00001208840079948610BE00698C0784828B0
:101DD00006D1FFE703990120884007990861FFE7D2
:101DE000FFE7FFE7FFE7039801300390BEE70198A4
:101DF00007990860FFE706980088B0F5807F50DB00
:101E0000FFE707984068019000200390FFE70398E0
:101E1000072842D8FFE7039800F108010120884015
:101E2000029006980088029908400490049802994C
:101E300088422DD1FFE703988000029002990F207D
:101E40008840009000990198884301900598029974
:101E500000FA01F10198084301900698C0782828FB
:101E600008D1FFE7039800F1080101208840079995
:101E70004861FFE70698C078482808D1FFE7039833
:101E800000F108010120884007990861FFE7FFE79A
:101E9000FFE7039801300390B9E70198079948607C
:101EA000FFE708B07047000082B00190ADF8021063
:101EB00000208DF8010001988068BDF802100842EA
:101EC00004D0FFE701208DF8010003E000208DF829
:101ED0000100FFE79DF8010002B0704782B0019059
:101EE000ADF80210BDF802000199486102B07047D8
:101EF00082B00190ADF80210BDF8020001990861AE
:101F000002B0704782B00190ADF802108DF8012048
:101F10009DF8010028B1FFE7BDF8020001990861B2
:101F200004E0BDF8020001994861FFE702B0704784
:101F300080B584B08DF80F008DF80E10002002904F
:101F40008DF80700FFE79DF807009DF80E10884206
:101F500012DAFFE79DF80F00FFF762FC01460298D6
:101F6000084402900520FFF7A1FEFFE79DF8070057
:101F700001308DF80700E6E702989DF80E10B0FBDF
:101F8000F1F080B204B080BD80B500203221FFF7AF
:101F9000CFFF02F0B9FE4FF08B4102F0A7FD002108
:101FA000C4F2202102F02CFF40F2D041C2F2000125
:101FB000086080BD80B501203221FFF7B9FF02F033
:101FC000A3FE4FF08B4102F091FD0021C4F27A4153
:101FD00002F016FF40F2D441C2F20001086080BD59
:101FE00080B5FFF7BFFC40F2D841C2F200010860A3
:101FF00080BD000083B0019000200090FFE70198B1
:102000000099405CA0B1FFE701980099405C30283E
:1020100009DCFFE701980099405C392803DBFFE702
:102020000020029007E0FFE7009801300090E6E70B
:1020300001200290FFE7029803B0704784B003903C
:102040000020029001900F2000900398C078B8B350
:10205000FFE74EF60C50CEF200000068C043C0F31C
:10206000022002900298C0F10400019000980299A9
:10207000C8400090039840780199884002900398E6
:10208000807800990140029808430290029800016C
:1020900002900298039909784EF20042CEF20002B3
:1020A00088540398027802F01F01012088401C2107
:1020B00001EAD2014EF20012CEF2000288500EE088
:1020C0000398027802F01F01012088401C2101EAD8
:1020D000D2014EF28012CEF200028850FFE704B027
:1020E0007047000081B0009000980021C0F2FA51C2
:1020F00008434EF60C51CEF20001086001B0704763
:1021000081B000208DF80200FFE79DF8020007284B
:1021100023DCFFE700208DF80300FFE79DF80300B4
:102120007F2813DCFFE79DF8021040F26800C2F23E
:10213000000000EBC1119DF8032000208854FFE748
:102140009DF8030001308DF80300E7E7FFE79DF8F5
:10215000020001308DF80200D7E701B0704700009F
:1021600083B0ADF80A00ADF808108DF807208DF89F
:102170000630BDF80800ADF80200FFE7BDF9020027
:10218000BDF908109DF80620114488424ADAFFE79D
:10219000BDF80A00ADF80400FFE7BDF90400BDF981
:1021A0000A109DF807201144884234DAFFE7BDF990
:1021B0000400002828D4FFE7BDF904007F2823DCB1
:1021C000FFE7BDF9020000281ED4FFE7BDF90200B9
:1021D0003F2819DCFFE7BDF9020000EB507121F048
:1021E0000702821A012000FA02F36FF0700000EA81
:1021F000011140F26800C2F200000144BDF9042060
:10220000885C98438854FFE7FFE7BDF8040001307D
:10221000ADF80400C1E7FFE7BDF802000130ADF8FA
:102220000200ABE703B0704780B586B00020059090
:10223000FFE70598C0087C2812D8FFE7002004902B
:10224000FFE70498C0087C2805D8FFE7FFE704985B
:1022500001300490F5E7FFE7059801300590E8E7C5
:1022600008200121029100F077FC14208DF80F0066
:1022700003208DF80E004FF48070ADF80C0040F68E
:102280000040C4F20100009003A90191FFF748FD4E
:10229000009801994FF40072ADF80C20FFF740FD53
:1022A000029800F0E5FB029800F0F2FB06B080BD5A
:1022B00080B582B08DF8070000208DF80600FFE79A
:1022C0009DF80600072816DCFFE79DF807009DF83B
:1022D00006108840C0B2C00900F0DAFB012000F00F
:1022E000C7FB002000F0C4FBFFE79DF806000130AB
:1022F0008DF80600E4E7012000F0BAFB002000F0B2
:10230000B7FB02B080BD000080B582B00120009014
:1023100000F0BEFB009800F0ABFB0020019000F045
:10232000B7FB019800F0A4FB02B080BD80B582B07D
:10233000002000F0ADFB0120019000F099FB019816
:1023400000F0A6FB02B080BD80B5FFF76DFFAE20A8
:1023500000F0AEFBD52000F0ABFB802000F0A8FB26
:10236000A82000F0A5FB3F2000F0A2FBD32000F046
:102370009FFB002000F09CFB402000F099FBA12077
:1023800000F096FBC82000F093FBDA2000F090FBF1
:10239000122000F08DFB812000F08AFBCF2000F09E
:1023A00087FBD92000F084FBF12000F081FBDB20CB
:1023B00000F07EFB302000F07BFBA42000F078FBD7
:1023C000A62000F075FB8D2000F072FB142000F0B9
:1023D0006FFBAF2000F06CFBFFF792FE00F024FBD8
:1023E00080BD000083B00290019101200090FFE7C2
:1023F0000198411E019128B1FFE7029900984843D6
:102400000090F5E7009803B07047000080B582B0F7
:102410008DF807008DF806109DF8070040F0B00019
:1024200000F046FB9DF806000009103000F040FB6C
:102430009DF8060000F00F0000F03AFB02B080BDEE
:1024400080B584B0ADF80E00ADF80C108DF80B20FF
:102450008DF80A309DF80A00082815D1FFE7BDF96C
:102460000E00BDF90C109DF80B3045F28652C0F6F7
:10247000000202EB0312A2F500726B461A600822FA
:10248000102300F075F91BE09DF80A00062816D10C
:10249000FFE7BDF90E00BDF90C109DF80B2002EB13
:1024A000420345F24C32C0F6000202EB4302C03A4E
:1024B0006B461A600622082300F05AF9FFE7FFE78F
:1024C00004B080BD80B586B0ADF81600ADF814102C
:1024D000049200208DF80F0002908DF80D00FFE7A8
:1024E00004989DF80D10405C00286BD0FFE704981D
:1024F0009DF80D10405C9DF80F2002A988549DF8AE
:102500000F0001308DF80F009DF80F00032852DBFB
:10251000FFE700208DF80F008DF80E00FFE79DF813
:102520000E0000EBC00145F29C10C0F6000000EB6D
:10253000810045F62341C0F60001FDF7D1FEB8B198
:10254000FFE79DF80E0000EBC00145F29C10C0F6BD
:10255000000000EB810002A9FDF7C2FE08B9FFE709
:1025600006E0FFE79DF80E0001308DF80E00D6E77B
:10257000BDF816009DF80D10013145F25652C5F216
:102580005552A1FB022100EB01101038BDF91410C7
:102590009DF80E2002EBC20345F29C12C0F6000229
:1025A00002EB830204326B461A6000B210231A4613
:1025B00000F0DEF8FFE7FFE79DF80D0001308DF831
:1025C0000D008DE706B080BD70B58CB09E46944678
:1025D0000C46054613981299119A109BADF82E508F
:1025E000ADF82C40CDF824E0CDF820C08DF81F3098
:1025F0008DF81E208DF81D108DF81C000898099983
:1026000000231A4602F035FA78B9FFE79DF81C005E
:10261000C00750B1FFE7BDF92E00BDF92C109DF8A1
:102620001D302B22FFF70CFF3DE00898099900238D
:102630001A4602F009FA98B9FFE79DF81C00C00796
:1026400070B1FFE7BDF92E00BDF92C109DF81D30CB
:102650002D22FFF7F5FE099880F00040099021E057
:102660000898099900231A4602F003FA30B9FFE7E7
:102670009DF81C00C00708B9FFE712E00898099907
:1026800000231A4602F0E0F950B9FFE79DF81C005C
:10269000C00728B9FFE7099880F000400990FFE7DC
:1026A000FFE7FFE7FFE70898099901F0D9FD0590DA
:1026B000059801F019FE02460B460898099902F0A8
:1026C00039F8099108909DF81E100A20FFF78AFE3C
:1026D00006900898029009980390069801F004FE6D
:1026E000024602980B46039901F08AFE01F020FC95
:1026F00001F0B6FD049004980699B0FBF1F105983D
:1027000008440590BDF82E009DF81DC06044BDF939
:102710002C10059A9DF81F30EE46CEF800C000B28E
:1027200000F008F9BDF82E109DF81F0001309DF84B
:102730001D3000FB0310BDF92C1000B22E22FFF754
:102740007FFEBDF82E109DF81F0002309DF81DC0C1
:1027500000FB0C10BDF92C10049A9DF81E30EE46BB
:10276000CEF800C000B200F0E5F80CB070BD00007B
:1027700080B584B0DDF818C0ADF80E00ADF80C10CF
:102780008DF80B208DF80A30002000908DF809009C
:102790008DF80800BDF90E00BDF90C109DF80B2056
:1027A0009DF80A30FFF7DCFC00988DF80800FFE781
:1027B0009DF808009DF80A10013901EB51720121C2
:1027C00001EBE201884280F2B280FFE700208DF841
:1027D0000900FFE79DF809009DF80B10884280F280
:1027E0009F80FFE7BDF90E009DF8091008440028FE
:1027F00000F18F80FFE7BDF90E009DF80910084435
:102800007F2800F38680FFE7BDF90C0000EB5070D5
:10281000C008ADF80600BDF90C0000EB507121F0C6
:102820000701401AADF80400BDF90C00B0F1FF3FFC
:102830000BDCFFE7BDF806000138ADF80600BDF877
:1028400004000830ADF80400FFE7BDF906009DF86C
:1028500008100844002826D4FFE7BDF906009DF8BB
:102860000810084407281EDCFFE706989DF80810AA
:102870009DF80B309DF8092001FB0323C05CBDF9D6
:10288000043000FA03F3BDF90600014440F2680089
:10289000C2F2000000EBC111BDF90E000244885CD9
:1028A00018438854FFE7BDF906009DF80810084456
:1028B000013000282CD4FFE7BDF906009DF8081070
:1028C00008440130072823DCFFE706989DF808102C
:1028D0009DF80B209DF8093001FB0232805CBDF9A8
:1028E0000420C2F1080220FA02F2BDF906000144F8
:1028F00040F26800C2F2000000EBC110BDF90E10FA
:102900001944014491F88000104381F88000FFE7EA
:10291000FFE7FFE79DF8090001308DF8090059E74E
:10292000FFE79DF8080001308DF8080040E704B08B
:1029300080BD000080B586B084460898ADF816C00A
:10294000ADF8141004928DF80F308DF80E000020B1
:102950008DF80D00FFE79DF80D009DF80F108842DF
:1029600034DAFFE7BDF816209DF80D009DF80E1033
:1029700000FB01210291BDF914100191049900910D
:102980009DF80F10C04301440A20FFF72BFD009A69
:10299000019903460298B2FBF3F24CF6CD43CCF614
:1029A000CC43A2FB03C3DB0803EB8303A2EB43028C
:1029B00042F030029DF80E3000B2FFF741FDFFE714
:1029C0009DF80D0001308DF80D00C4E706B080BD04
:1029D00080B584B0ADF80E00ADF80C1002928DF801
:1029E000073000208DF80600FFE702989DF80610DA
:1029F000405CB8B1FFE7BDF80E009DF806C09DF839
:102A000007300CFB0300BDF90C10029A12F80C20E1
:102A100000B2FFF715FDFFE79DF8060001308DF8C5
:102A20000600E2E704B080BD80B582B000208DF8DA
:102A30000700FFE79DF80700072817DCFFE79DF870
:102A400007000021FFF7E2FC9DF8071040F2680044
:102A5000C2F2000000EBC110802100F03DF8FFE75A
:102A60009DF8070001308DF80700E3E702B080BD54
:102A700080B582B08DF807009DF8072040F6004031
:102A8000C4F201004FF48071FFF73CFA02B080BD40
:102A900080B582B08DF807009DF8072040F6004011
:102AA000C4F201004FF40071FFF72CFA02B080BDB0
:102AB00080B582B08DF80700FFF726FC7820FFF77D
:102AC000F7FB0020FFF7F4FB9DF80700FFF7F0FB92
:102AD000FFF72CFC02B080BD80B582B001908DF86C
:102AE0000310FFF711FC7820FFF7E2FB4020FFF70F
:102AF000DFFB00208DF80200FFE79DF802009DF843
:102B0000031088420DDAFFE701989DF80210405C3F
:102B1000FFF7CEFBFFE79DF8020001308DF80200C1
:102B2000EBE7FFF703FC02B080BD000082B001902C
:102B30000020009041F20401C4F2020108680090F4
:102B4000009820F440400090019A009810430090B3
:102B50000098086002B0704782B001908DF80310B1
:102B60009DF8030048B1FFE7019A41F21801C4F251
:102B7000020108681043086008E0019A41F2180158
:102B8000C4F20201086890430860FFE702B0704792
:102B900086B005900020049003900290019041F2CD
:102BA0000400C4F20200006800F00C0004900498D5
:102BB000009040B1FFE7009804280BD0FFE7009891
:102BC00008280ED047E0059941F20020C0F27A00B3
:102BD000086047E0059941F20020C0F27A000860E1
:102BE00040E041F20400C4F20200016801F47011F7
:102BF0000391006800F4803002900399022000EBFA
:102C000091400390029848B9FFE7039840F60011FD
:102C1000C0F23D014843059908601BE041F2040001
:102C2000C4F2020000688003002809D5FFE703987A
:102C300040F60011C0F23D0148430599086008E0E4
:102C4000039841F20021C0F27A01484305990860D7
:102C5000FFE7FFE706E0059941F20020C0F27A00A5
:102C60000860FFE741F20400C4F20200016801F0CD
:102C7000F0010491049909090491049A45F28C1118
:102C8000C0F600018A5C0192059B1A68DDF804C059
:102C900022FA0CF25A60026802F4E0620492049A8A
:102CA000120A0492049A8A5C0192059B5A68DDF824
:102CB00004C022FA0CF29A60026802F46052049294
:102CC000049AD20A0492049A895C0191059A516887
:102CD000019BD940D160006800F440400490049802
:102CE000800B0490049945F28810C0F60000405C07
:102CF00001900599C868019AB0FBF2F0086106B02E
:102D00007047000080B582B008200121FFF724FF42
:102D10004FF40060ADF8040010208DF80700032088
:102D20008DF8060040F60040C4F2010001A9FEF74C
:102D3000F7FF02B080BD000080B540F60040C4F24D
:102D400001004FF40061FFF7C9F880BD80B540F67F
:102D50000040C4F201004FF40061FFF7C9F880BDE4
:102D600080B540F26840C2F200000078012877D1B7
:102D7000FFE740F26940C2F2000045F6ED31C0F6CF
:102D80000001FDF7ADFA00283FD1FFE740F2D8403F
:102D9000C2F20000006801F0BBFD02460B4645F69A
:102DA000BC30C0F6000000F0BFF840F2D440C2F2E0
:102DB0000000006801F0ACFD02460B4645F6AD3060
:102DC000C0F6000000F0B0F840F2D040C2F20000BF
:102DD000006801F09DFD02460B4645F69E30C0F6A8
:102DE000000000F0A1F840F20000C2F2000001680B
:102DF00045F67630C0F6000000F096F845F6CB3088
:102E0000C0F6000000F0C2F823E040F26940C2F2D0
:102E10000000FFF7EFF8A0B1FFE740F26940C2F20F
:102E20000000FDF74FFA014640F20000C2F2000038
:102E30000160016845F68930C0F6000000F074F8C2
:102E400006E045F6DA30C0F6000000F09FF8FFE734
:102E5000FFE740F26841C2F2000100200870FFE77E
:102E600080BD000080B58CB04FF4804001210591F9
:102E7000FFF772FE05990420FFF76EFE18208DF80B
:102E80002F004FF40070ADF82C00032001908DF856
:102E90002E0040F60000C4F2010002900BA903913D
:102EA000FEF73EFF019A0298039948238DF82F30D0
:102EB0004FF48063ADF82C308DF82E20FEF730FFF4
:102EC0004FF4165007900020ADF828000C21ADF803
:102ED0002610ADF82400ADF82200ADF8200043F62E
:102EE0000000C4F20100049007A900F0BFFA0498A2
:102EF000059A40F2255100F06FFA4FF4A060FFF7F9
:102F0000F1F8059825218DF818108DF81B008DF823
:102F100019008DF81A0006A8FFF790F80498059993
:102F200000F0CAF90CB080BD83B080B59DB021938C
:102F300020921F911C901FA802901C99029A03A82E
:102F40000190FDF7ADF9019800F020F81DB0BDE843
:102F5000804003B07047000080B582B08DF8070054
:102F60009DF8071043F60000C4F2010000F034FBA6
:102F7000FFE743F60000C4F20100802100F0B2F93F
:102F800008B9FFE7F5E702B080BD000080B582B068
:102F9000019000208DF80300FFE701989DF80310D1
:102FA000405C68B1FFE701989DF80310405CFFF7B3
:102FB000D3FFFFE79DF8030001308DF80300ECE735
:102FC00002B080BD80B500F001F880BD84B0002063
:102FD0000390029041F20001C4F20201086840F43B
:102FE00080300860FFE741F20000C4F20200006890
:102FF00000F400300290039801300390FFE702993B
:103000000020019039B9FFE70398B0F5A06018BF20
:1030100001200190FFE70198C0070028E3D1FFE7F6
:1030200041F20000C4F2020000688003002803D5CA
:10303000FFE70120029002E000200290FFE70298E3
:10304000012851D1FFE742F20001C4F202010868F1
:1030500040F010000860086820F007000860086869
:1030600040F00200086041F20401C4F20201009144
:103070000868086008680860086840F480600860B4
:10308000086820F47C100860086840F4E8100860C4
:1030900041F20001C4F20201086840F0807008604B
:1030A000FFE741F20000C4F202000068800100283E
:1030B00001D4FFE7F5E741F20401C4F20201086818
:1030C00020F003000860086840F002000860FFE795
:1030D00041F20400C4F20200006800F00C0008286D
:1030E00001D0FFE7F4E700E0FFE704B0704700001D
:1030F00080B541F20002C4F20202106840F0010003
:10310000106041F20401C4F2020108680023CFF606
:10311000FF031840086010684FF6FF73CFF6F663A0
:1031200018401060106820F480201060086820F4B7
:10313000FE00086041F20801C4F202014FF41F00D2
:103140000860FFF73FFF4EF60851CEF200014FF046
:103150000060086080BD000080B582B043F60000CA
:10316000C4F2010040F2255100F0DEF801287ED1C2
:10317000FFE743F60000C4F2010000F025FA8DF8E5
:10318000070040F2CD40C2F200000078D0B9FFE75E
:103190009DF80700402814D1FFE740F26840C2F2D2
:1031A0000000007868B9FFE740F2CD41C2F20001AB
:1031B0000120087040F2CE41C2F2000100200870E8
:1031C000FFE74BE040F2CD40C2F20000007801285A
:1031D0001DD1FFE79DF807000D2807D1FFE740F25A
:1031E000CD41C2F20001022008700FE09DF80700F7
:1031F00040F2CE41C2F200010B7840F26942C2F2C5
:103200000002D054087801300870FFE725E040F252
:10321000CD40C2F20000007802281DD1FFE79DF8E2
:1032200007000A2817D1FFE740F2CD41C2F20001A2
:103230000020087040F2CE41C2F200010A7840F24C
:103240006941C2F20001885440F26841C2F20001B3
:1032500001200870FFE7FFE7FFE7FFE743F6000004
:10326000C4F2010040F2255100F004F8FFE702B07B
:1032700080BD000083B00290ADF806100020ADF8CC
:103280000400ADF80200BDF8060040F66A1188425D
:1032900001D1FFE7FFE79DF80700ADF80400BDF896
:1032A000041001208840ADF80200BDF80200C043C0
:1032B0000299088003B0704782B001908DF8031026
:1032C0009DF8030030B1FFE70199888940F4005070
:1032D000888105E00199888920F400508881FFE702
:1032E00002B0704782B00190ADF8021000208DF856
:1032F0000100BDF80200B0F5007F01D1FFE7FFE754
:1033000001980088BDF802100840000420B1FFE7D2
:1033100001208DF8010003E000208DF80100FFE797
:103320009DF8010002B0704786B00590ADF812100C
:1033300000200390029001908DF80300BDF8120068
:1033400040F66A11884201D1FFE7FFE79DF81200BD
:1033500040090190BDF8120000F01F000290029990
:103360000120884002900198012806D1FFE70598C6
:10337000818902980840029010E00198022806D145
:10338000FFE70598018A02980840029005E0059839
:10339000818A029808400290FFE7FFE79DF813003A
:1033A00003900399012088400390059801880398B1
:1033B00008400390029838B1FFE7039820B1FFE777
:1033C00001208DF8030003E000208DF80300FFE7E3
:1033D0009DF8030006B0704786B00590ADF8121056
:1033E0008DF8112000200390029001900090BDF80C
:1033F000120040F66A11884201D1FFE7FFE7059805
:1034000000909DF8120040090390BDF8120000F0F2
:103410001F00029002990120884001900398012822
:1034200004D1FFE700980C3000900CE003980228CC
:1034300004D1FFE700981030009003E000981430AA
:103440000090FFE7FFE79DF8110030B1FFE7019A18
:10345000009908681043086005E0019A009908681F
:1034600090430860FFE706B07047000080B58CB05D
:103470000B900A9100200990089007900690059003
:103480000A98808908B1FFE7FFE70B9805900B9831
:10349000008A099009984CF6FF71084009900A9833
:1034A000C18809980843099009980B9908820B98DC
:1034B0008089099009984EF6F311084009900A99FD
:1034C00088880A891043498901430998084309906B
:1034D00009980B9988810B98808A099009984FF672
:1034E000FF41084009900A9881890998084309908A
:1034F00009980B9988826846FFF74AFB059843F6BE
:103500000001C4F20101884203D1FFE7039808904B
:1035100002E002980890FFE70B98808900040028D9
:103520000AD5FFE70898192148430A990968490014
:10353000B0FBF1F0079009E00898192148430A9977
:1035400009688900B0FBF1F00790FFE7079848F29F
:103550001F51C5F2EB11A0FB01016FF00F0000EA53
:1035600051000990079A09980009642100FB112075
:1035700006900B9880890004002810D5FFE7069973
:10358000322000EBC10048F21F51C5F2EB11A0FB45
:103590000110C0F342110998084309900FE0069901
:1035A000322000EB011048F21F51C5F2EB11A0FBD5
:1035B0000110C0F34311099808430990FFE70998E7
:1035C0000B9908810CB080BD81B000900098808874
:1035D0006FF35F2001B0704782B00190ADF8021028
:1035E000BDF802006FF35F200199888002B0704738
:1035F00010B592B000200D901190FEF7A5FEFFF7D8
:1036000081FBFEF735F9FFF72DFC0D9945F61742C2
:10361000C0F6000220200C90FEF754FF0D9845F6EE
:103620000D42C0F6000210210B91FEF74BFF0B99E3
:1036300045F6F532C0F6000264200E90FEF742FF18
:103640000C990D9845F60342C0F60002FEF73AFFCA
:103650000C990E9845F6E932C0F600020823109343
:10366000FFF7B6F90D9845F6F932C0F600023021A1
:103670000F91FEF727FF0E980F99109B45F6EA323F
:10368000C0F60002FFF7A4F9FFE7FEF7A9FC40F23D
:10369000D840C2F20000006801F03AF902460B4639
:1036A00069460024CC6008200790886002200A90B8
:1036B000486008602820089010210491FEF784FFDC
:1036C000049908980A9B1A46FEF74AFDFEF772FC19
:1036D00040F2D440C2F20000006801F019F9DDF8B0
:1036E0001CE0024608980B460A99EC46CCF80C40C0
:1036F000CCF808E0CCF8041003210691CCF80010B7
:1037000020210591FEF760FF0599069A08980A9B0B
:10371000FEF726FDFEF738FC40F2D040C2F2000072
:10372000006801F0F5F8DDF81CE0024608980B4649
:103730000A99EC46CCF80C40CCF808E0CCF8041020
:10374000CCF8001030210991FEF73EFF0898099946
:103750000A9B1A46FEF704FDFFF766F9FEF7E2F84A
:10376000FFF7FEFA91E75FEA400C08BF91F0000F07
:103770004FEA8C234FEAC12243EA51514FEA1C50D1
:1037800018BF00F5F0404FEA300018BF41F000418B
:103790005FEA6C5C00F02980BCF1FF3F08BF40F09D
:1037A00080407047130C06BF12044FF0100C4FF00E
:1037B000000C130E04BF12020CF1080C130F04BF0F
:1037C00012010CF1040C930F04BF92000CF1020CD7
:1037D000D30F04BF52000CF1010C11464FF0000250
:1037E000A0F11F00A0EB0C00704711F0004F08BFC4
:1037F000704731F000413FF4D5AF0B0C06BF090410
:103800004FF0100C4FF0000C0B0E04BF09020CF12E
:10381000080C0B0F04BF09010CF1040C8B0F04BF43
:1038200089000CF1020CCB0F04BF49000CF1010C14
:10383000CCF1200322FA03F341EA030102FA0CF26D
:10384000A0EB0C0000F101007047000023F07F475F
:1038500020F07F4C80EA030000F00040ACEB07034F
:1038600003F57C5303F1FF032DE9804909B44FEAC6
:10387000144324EA03484FEA154B25EA0B4E0FF296
:10388000042606EB13273E7803FB0667C7F50007FF
:1038900007FB06F64FEAD64606F102064FEA543712
:1038A00007FB066CCCF1005C4FEA1C472CEA074C86
:1038B0000CFB06F507FB06F404EB15464FEA9616DB
:1038C00049085FEA320234BF00204FF000404FEA5F
:1038D000D13706FB07FC4FEA1C4C0CFB0BF7D21B45
:1038E00003FB0CF761EB07010CFB0EF7B0EB074095
:1038F00072EB17420CFB08F734BFA2EB0742B2EBA6
:10390000074261EB17414FEA0C444FEA910706FB6F
:1039100007FC4FEA1C4C0CFB0BF7B0EBC74072EBFB
:10392000573203FB0CF734BFA2EBC742B2EBC742DE
:1039300061EB57310CFB0EF7B0EBC70072EB57721F
:103940000CFB08F734BFA2EBC702B2EBC70261EB76
:1039500057714FEA816141EA92114FEA826242EA6D
:1039600090124FEA806004EBCC04039F4FEAD137FA
:1039700006FB07FC4FEA1C4C0CFB0BF7D21B03FBAE
:103980000CF761EB07010CFB0EF7B0EB074072EB95
:1039900017420CFB08F734BFA2EB0742B2EB074219
:1039A00061EB17414FEA8C5504EB9C244FEA9107D9
:1039B00006FB07FC4FEA1C4C0CFB0BF7B0EBC740B7
:1039C00072EB573203FB0CF734BFA2EBC742B2EBEA
:1039D000C74261EB57310CFB0EF7B0EBC70072EB3F
:1039E00057720CFB08F734BFA2EBC702B2EBC70259
:1039F00061EB57714FEA816141EA92114FEA8262AD
:103A000042EA90124FEA806015EB4C2544F1000425
:103A10004FEAD13706FB07FC4FEA1C4C0CFB0BF7B7
:103A2000D21B03FB0CF761EB07010CFB0EF7B0EBAD
:103A3000074072EB17420CFB08F734BFA2EB0742BA
:103A4000B2EB074261EB17414FEA813141EA924103
:103A50004FEA823242EA90424FEA80304FEA0C76D7
:103A600015EB1C1544F1000448EA03434EEA0B48E9
:103A70004FF0000EB2EB080C71EB030724BF624657
:103A800039464EEB0E0E4FF0000B001852414941E3
:103A90004BEB0B0BB2EB080C71EB03077BF1000B4C
:103AA00024BF624639464EEB0E0E4FF0000B001855
:103AB000524149414BEB0B0BB2EB080C71EB030786
:103AC0007BF1000B24BF624639464EEB0E0E51EAE5
:103AD000020718BF46F0010616EB0E7655F10002FC
:103AE00054F1000103D5BDE88901BDE80088BDE8B7
:103AF0008901BDE80048B619524141EB0101A3F12B
:103B00000103704780807F7E7D7C7B7A7978777631
:103B100076757473727171706F6E6E6D6C6C6B6AAA
:103B20006A69686867666665646463636261616048
:103B3000605F5F5E5E5D5D5C5C5B5B5A5A595958C5
:103B4000585757565655555554545353525252512F
:103B5000515050504F4F4F4E4E4D4D4D4C4C4C4B85
:103B60004B4B4A4A4A4949494848484747474746CC
:103B70004646454545444444444343434342424208
:103B8000424141419C46002B30D477002BD04FEA74
:103B900037071CB503B44FF010004FF01001BAF115
:103BA000000F06D0BCF1000FDCBF40F0080040F071
:103BB00008014FF000000FBCBDE810400BF1010BF5
:103BC000BBF1010F08BF5FEA170722BF12F1010224
:103BD00011F101014FF0004143F1000300F00040FA
:103BE00043EA00007047F9D35708D0E746EA064693
:103BF0004FEA164613F1400F1FDD13F1200FDFBF10
:103C000016430A46002120335B42BED0C3F1200791
:103C100046EA06464FEA164602FA07F746EA07065C
:103C200022FA03F2C3F1200701FA07F742EA07027A
:103C300021FA03F14FF00003A7E746EA020646EA3D
:103C400006464FEA164646EA0106BCBF46EA064665
:103C5000360C4FF000034FF000024FF0000194E7E4
:103C60002DE9804C70B49A46934691E8380007C815
:103C700031EA400C48BF34EA430C03D5FFF7E6FDB8
:103C8000FFF780FFF0BCBDE8008C2DE9804C70B4DC
:103C90009A46934691E8380007C810F0804F08BF55
:103CA00013F0804F03D100F005F8FFF76BFFF0BC75
:103CB000BDE8008C20F07F4723F07F4C80EA0300B2
:103CC00000F0004007EB0C03A3F57C53A3F1FE03C7
:103CD00092F0000F00F0B38095F0000F00F07780B5
:103CE0002DE901494FEA114021EA00484FEA144604
:103CF00024EA064700FB06FC08FB06F607FB08F86B
:103D000018EB06484CEB164C00FB07F718EB07487E
:103D10004CEB17404FEA124B22EA0B4E4FEA154686
:103D200025EA06470BFB06FC0EFB06F607FB0EFE1C
:103D30001EEB064E4CEB164C0BFB07F71EEB074E2B
:103D40004CEB174B18EB0B0840F1000018EB0E0B77
:103D500058EB000840F100008F1A4FF000014FF0BF
:103D600000063CBFC943661B14BFB5EB040C002121
:103D70003CBFC943F61B4FEA174427EA04454FEA04
:103D80001C472CEA074C04FB076205FB07F70CFBFA
:103D900005F616EB074642EB174204FB0CFC16EB4C
:103DA0000C4642EB1C421BEB060658EB020241415B
:103DB0004EEA8E0E46EA9E0601D5BDE80189B61987
:103DC000524141EB0101A3F10103BDE801894FEA32
:103DD000144524EA05464FEA114721EA074C05FB42
:103DE00007F406FB07F70CFB06F111EB074144EB68
:103DF000174405FB0CFC11EB0C4144EB1C444FEA4F
:103E0000124722EA074C05FB07F206FB07F70CFBFB
:103E100006F616EB074642EB174205FB0CFC16EBC9
:103E20000C4642EB1C456A1854F1000148BF70472C
:103E3000B619524141EB0101A3F10103704795F01E
:103E4000000F37D04FEA114221EA02464FEA1447E9
:103E500024EA074C02FB07F106FB07F70CFB06F40C
:103E600014EB074441EB174102FB0CFC14EB0C4430
:103E700041EB1C414FEA154725EA074C02FB07F5C9
:103E800006FB07F70CFB06F616EB074645EB174556
:103E900002FB0CFC16EB0C4645EB1C42121951F1CF
:103EA000000148BF7047B619524141EB0101A3F12F
:103EB000010370474FEA144524EA05464FEA1147CB
:103EC00021EA074C05FB07F106FB07F70CFB06F29E
:103ED00012EB074241EB174105FB0CFC12EB0C42C5
:103EE00051EB1C414FF0000648BF7047921841EB60
:103EF0000101A3F101037047490050EAC12018BF36
:103F000004204A0D18BF40F0010040F2FF72B2EBEE
:103F1000515F08BF40F00200012808BF052070472C
:103F200030380A2801D20120704700207047000075
:103F30002DE9F04D07460E4600F096FB04460D466F
:103F40003A46334600F0EAFBDFF86CA0DFF86CB0CD
:103F50001B4B0746884616F0004F4FF000020AD070
:103F600000F012FA0AD900225B463846414600F0BA
:103F700045FB1BD212E000F007FA08D2002253469C
:103F80002046294600F0D6FB04460D460EE00022EE
:103F90005B463846414600F031FB07D800225346C5
:103FA0002046294600F06CF804460D46314620466E
:103FB00065F31E01BDE8F08D0000F03F0000E03F1A
:103FC0000000E0BF10B500290AD00878002807D00B
:103FD00005487844FCF784F9002801D0002010BD82
:103FE0000248784410BD0000721C00006A1C0000EA
:103FF00010B500290AD00878002807D00548784471
:10400000FCF76EF9002801D0002010BD024878446A
:1040100010BD0000561D00004E1D000021F00042A2
:1040200001F00043A2F16052B2F5801F28BFD2F127
:104030007F6C0BD95FEA001C43EAC20242EB50706E
:1040400018BF704728BF20F001007047B2F5801FED
:10405000BCBF184670474FEA410C1CF5001F02D246
:10406000084600F094BF70B500F074FA00000089B3
:10407000FFF7F6BF4FF00040A0F58000704700004A
:1040800010B591EA030F48BF83F0004300F15A8353
:10409000841A71EB030C05D2121943EB0C03001BBD
:1040A00061EB0C014FEA1154A4EB135CDFF81CE147
:1040B0001EEA430F18BF9EEA445F00F0748021EAB5
:1040C000045123EA0E0343F48013DCF1200E32D3B3
:1040D00022FA0CFE10EB0E0023FA0CFE41EB0E014F
:1040E000CCF1200E03FA0EFE10EB0E00CCF1200EE8
:1040F00051F10001B1F5801F32D201EB045112FAE7
:104100000EF2BDE8104058BF7047401C38BF5FEA50
:10411000420218BF7047002814BF20F0010041F18F
:1041200000014FEA410313F5001F38BF7047A1F1AA
:10413000C04100F05DBA012A43EB0302ACF1200C50
:10414000DCF11F0E32BF4FF0000E23FA0CF310EB20
:10415000030041EB0451B4EB115FD0D0A1EB04514B
:1041600001F58011490801EB04515FEA30000ED3DC
:1041700050F1000038BF12FA0EFE08D1BDE8104021
:10418000C9E7401C38BF5FEA4202CAD1C3E7BDE8B5
:1041900010404FEA410313F5001F38BF7047A1F1EB
:1041A000C04100F025BA9EEA445F08D011EA5E0FD4
:1041B000BDE8104004BF01F0004100207047BDE899
:1041C000104070B500F0C6F964FBBE3E0000E0FF91
:1041D000491058BFC1F140415B1058BFC3F1404383
:1041E0008B42EFF30080704751EA030C17D41CF5A3
:1041F000801F58BFBCF5801F00F10680994218BF90
:10420000704708BF9042704707D711F5801F58BF0D
:1042100013F5801F19D499427047894270471CF5E5
:10422000801F08D5BCF5801FF7D58B4218BF70479B
:1042300008BF824270474FF4001C1CEB410F38BF8F
:104240001CEB430F01D28B42704770B500F082F92E
:10425000922449004FF000514FF08053FFF7B8BF50
:104260004FEA1153A3F58063D3F11E03A8BFD3F126
:10427000200C08DB4FF0004242EAC12252EA5052C1
:1042800032FA03F0704709420BD4102BC4BF002050
:10429000704703F5787CBCF1FF3F05D04FF0FF304D
:1042A00070474FF00000704770B500F053F900BF41
:1042B0004992248000207047F0E710F0004248BF88
:1042C0004042B0FA80F310FA03F10AD0C3F11D03A3
:1042D00003F5806302EB03524FEA415002EBD12118
:1042E00070474FF000007047B0FA80F310FA03F106
:1042F0000AD0C3F11D0303F580634FEA03524FEA6E
:10430000415002EBD12170474FF000007047000090
:1043100051EA030C17D41CF5801F58BFBCF5801F51
:1043200000F10680994218BF704708BF904270475D
:1043300007D711F5801F58BF13F5801F19D4994274
:104340007047894270471CF5801F08D5BCF5801F57
:10435000F7D58B4218BF704708BF824270474FF4B1
:10436000001C1CEB410F38BF1CEB430F01D28B42EA
:10437000704770B500F0EEF8922449004FF080517C
:104380004FF00053FFF724BF51EA030C17D41CF57C
:10439000801F58BFBCF5801F00F10680994218BFEE
:1043A000704708BF9042704707D711F5801F58BF6C
:1043B00013F5801F19D499427047894270471CF544
:1043C000801F08D5BCF5801FF7D58B4218BF7047FA
:1043D00008BF824270474FF4001C1CEB410F38BFEE
:1043E0001CEB430F01D28B42704770B500F0B2F85E
:1043F000922449004FF000514FF08053FFF7E8BE80
:1044000070B5DFF848C11CEA111E1EBF1CEA131567
:104410009EEA0C0F95EA0C0F00F06F8081EA03040E
:104420004EEAD47EAE4421EA4C1123EA4C1341F407
:10443000801143F48013AEF17F7EA1FB024CA0FB00
:104440000365361955EB0C05A1FB034C4CF1000339
:10445000A0FB021C16EB0C06654153F10003094258
:1044600018BF46F0010613F4007F0BD14FEA033169
:104470004FEA053041EA155140EA165034036FF017
:1044800003020AE04FEAC3214FEAC52041EA555131
:1044900040EA5650F4026FF0020202EB2E4201EBAA
:1044A000025585EACE710AD05FEA440C18BF24F0A9
:1044B000004450F1000041F1000120EAD47040F2C4
:1044C000FE7C624500D270BDA84214BF4FF080440C
:1044D0004FF04044002E08BF0024BEF1806FA8BFFB
:1044E000A1F1C041BDE8704080F2828001F1C0417D
:1044F00001F000414FF0000070470CEA13159EEAEE
:104500000C0F18BF95EA0C0F06D081EA030E4FF08E
:1045100000000EF0004170BD00F01CF88900013E63
:1045200000F007B800F009B84FEA430C5FEA5C5CA2
:1045300008D081EA030100F05BB84FEA410C5FEA62
:104540005C5CF6D102494FF0000070470000FF07A5
:104550000000F87F0EF1020E2EF0030E5EF8046BE1
:10456000364205D4012A43EB030515F5001F12D886
:10457000012841EB010C1CF5001F0CD80ED14FEAAD
:10458000D17C0CEB4C0C0CF1020C15F5001F08BF94
:104590004CEBD37C04E04FF0080C01E04FEAD37CF5
:1045A0000CEB4C0526FA05F606F00706B6F1040CEE
:1045B00006D20EEB860CBDE870404CF0010C604753
:1045C000DFE80CF0090B02024FF00041A1F50021D9
:1045D0004FF0000070BD19461046012851EB010450
:1045E00018BFD4F5001484BF002001F0004170BD55
:1045F0000808A0F500114FEA3101704753EA010C99
:1046000017D41CF5801F58BFBCF5801F00F1068031
:104610008B4218BF704708BF8242704707D713F517
:10462000801F58BF11F5801F19D48B4270479B42E1
:1046300070471CF5801F08D5BCF5801FF7D599423F
:1046400018BF704708BF904270474FF4001C1CEB26
:10465000430F38BF1CEB410F01D2994270470FB492
:104660000CBC03BCFFF7C1BE5FEA410C5FEA5C5CB7
:10467000ACF580635B1C39D4D3F1340240F3458040
:10468000B2F1200314DA4FF0010C0CFA02FCACF189
:104690000103034020EA0300B3EB5C0208BF10EA09
:1046A0000C0F98BF704710EB0C0041F100017047F0
:1046B0000AD0C3F1200201FA02FC01284CF10000EB
:1046C00021FA03F101FA03F14FF0010C0CFA03FC9B
:1046D000ACF1010321EA0301B0F1004F08BF11EA78
:1046E0000C0F4FF0000088BF61447047B3F1FF3FEB
:1046F00028BF50EAC12C01F000414FF0000084BFF8
:1047000041F07C5141F470017047B3F5806FB8BF40
:10471000704770B5FFF71EFF40DBB6BE10B591EADB
:10472000030F81F000413FF5B3AC83F0004300F08C
:1047300009B8000010B591EA030F48BF83F00043A9
:104740003FF5A6AC841A71EB030C07D28CF0004C39
:10475000121943EB0C03001B61EB0C014FEA1154DF
:10476000A4EB135CDFF8A4E11EEA430F18BF9EEA36
:10477000445F00F0B48021EA045123EA6E03524200
:10478000C3EB6E0338BF5B1EDCF1200E25D322FA8B
:104790000CFE10EB0E0043FA0CFE41EB0E01CCF1C7
:1047A000200E03FA0EFE10EB0E00CCF1200E51F19C
:1047B000000129D401EB045112FA0EF2BDE81040B9
:1047C00058BF7047401C1CBFB2F1004F7047002813
:1047D0000CBF491C20F00100704712EB020E43EBA6
:1047E000030218BF4FF0010E4EEA4202ACF1200C5A
:1047F000DCF11E0E56D943FA0CFE10EB0E00CCF184
:104800001E0E51F1FF31D5D50EF1010E12FA0EFE3A
:10481000404141EB010101EB445C5FEA5C5C10D973
:1048200001EB045110EBDE7038BFBEF1004FBDE864
:10483000104018BF704700280CBF491C20F0010031
:10484000704734D24FEAD42C24F4006411F50011DF
:104850001BD0B1FA81F20B3AA41AA41ED2F12003A4
:10486000914030FA03F31943904001EBCC7101EB16
:104870000451002CBDE81040A8BF704701F1C041B1
:1048800001F000414FF000007047B0FA80F310FAD9
:1048900003F102D1BDE810407047E41A173C480507
:1048A000C90AE2E701EB0451BDE810407047491026
:1048B0004FEA300001EB0451BDE8104002E04FF038
:1048C000000170474A0008BF0042F8D0B2F5001F4F
:1048D00028BF704701F000414FF0000070479EEA8A
:1048E000445F07D011EA5E0FBDE8104004BF00210D
:1048F00000207047BDE8104070B5FFF72BFE00BFE9
:1049000040DFF63E104683F0004170470000E0FFB4
:1049100043004FEAD30C4FEA3C0C43401FBF400713
:104920000CF1605113F0FE4F70471CF0006F03D183
:104930000CF00041002070470CF0004343EA507037
:1049400040EACC0010B500F0DCFA00BF0000009295
:104950004FEA0001FFF74CBE4FF00041A1F50021E6
:104960004FF000007047000090EA010F48BF81F04F
:10497000004100F11883421A3CBF801A89184FEA9F
:10498000D052A2EBD1534FF07F4C1CEA410F18BF1D
:104990009CEA026F00F03B804FF0004C4CEA002094
:1049A0004CEA012121FA03FC10EB0C0C1ED202F19F
:1049B000FF325FEA1C2040EBC25038BF70471CF04A
:1049C0007F0F4FEA400C18BFBCF17F4F38BF7047D4
:1049D000C3F12003994008BF20F00100BCF17F4FD4
:1049E00038BF7047A0F1C04000F0D1BA4FEA3C0098
:1049F000000A40EBC25028BF1CF0FF0F4FEA400CEA
:104A0000E6D018BFBCF17F4F38BF7047EAE79CEA99
:104A1000026F05D010EA5C0F08BF00F0004070473D
:104A200010B500F06EFA00BF64FBBE3E10B5FFF794
:104A3000DBFB0CBF0120002010BD10B5FFF7D4FB3D
:104A400014BF0120002010BD10B5FFF761FC8CBF22
:104A50000120002010BD10B5FFF75AFC2CBF01202B
:104A6000002010BD10B5FFF78FFC94BF012000207F
:104A700010BD10B5FFF788FC34BF0120002010BD29
:104A800010B500F0F5F80CBF0120002010BD10B5E6
:104A900000F0EEF814BF0120002010BD10B500F0AA
:104AA00047F98CBF0120002010BD10B500F040F97F
:104AB0002CBF0120002010BD10B500F06DF994BF8F
:104AC0000120002010BD10B500F066F934BF0120B0
:104AD000002010BD401058BFC0F14040491058BFE1
:104AE000C1F140418142EFF3008070474FF47F0CE9
:104AF0001CEAD0121EBF1CEAD11392EA0C0F93EAF3
:104B00000C0F00F0858090EA010F48BF42F48072DC
:104B100040F4000C41F400002CF07F4120F07F4075
:104B200000B5A2EB030281420FF2081CACEB504E21
:104B30009EF800E0C0F100004FEA4E0E00FB0EFCB4
:104B400038BF49004FEA2C1C0CFB0EF34FEACE1E77
:104B50000EEB635E4FEA112C0EFB0CFC4FEAC121F9
:104B60004FEA1C5300FB031102F5FA024FEA112C25
:104B70000EFB0CFC4FEA01314FEADC4C00FB0C1140
:104B800042EB2242C14228BF09184CEB03335DF8C7
:104B900004EB10EB410143EBC250B2F57C0F38BF80
:104BA000704729D512F0F00F1CBF00F1C04000F093
:104BB00000407047008182838485868788898B8C3A
:104BC0008D8E8F919293959697999A9C9D9FA0A276
:104BD000A3A5A7A8AAACAEB0B2B3B5B7B9BCBEC0C6
:104BE000C2C5C7C9CCCED1D4D7D9DCDFE2E6E9EC67
:104BF000F0F3F7FAFE0000004FEA400C0CF1807C65
:104C0000BCF17E4F28BF7047B0F1C04000F0BFB983
:104C10000CEAD11390EA010F48BF42F4807262455A
:104C200038BF634507D213F47F0F16D080EA010026
:104C300000F00040704710B500F063F9097EFC3EBB
:104C400000F005B880EA010000F00040704780EAFB
:104C5000010000F0004000F09AB912F47F0F04BF89
:104C60000248704780EA010000F091B90000C07F5F
:104C700050EA010C00F113801CF5000F58BFBCF581
:104C8000000F01D48842704707D710F5000F58BFB6
:104C900011F5000F15D488427047894270471CF502
:104CA000000F04D5BCF5000FF7D5814270474FF0D7
:104CB000807C1CEB400F38BF1CEB410F01D28142BE
:104CC000704710B500F01DF9922449004FF00050D4
:104CD0004FF08051FFF7FEBE10F0004148BF404248
:104CE000B0FA80F310FA03F2C3F19D030BD051EA3E
:104CF000C35101EB1220530638BF704700F1010089
:104D000008BF20F001007047B0FA80F310FA03F2F8
:104D1000C3F19D030AD0D90501EB1220530638BF19
:104D2000704700F1010008BF20F00100704700004B
:104D300050EA010C00F113801CF5000F58BFBCF5C0
:104D4000000F01D48842704707D710F5000F58BFF5
:104D500011F5000F15D488427047894270471CF541
:104D6000000F04D5BCF5000FF7D5814270474FF016
:104D7000807C1CEB400F38BF1CEB410F01D28142FD
:104D8000704710B500F0BDF8922449004FF08050F4
:104D90004FF00051FFF79EBE50EA010C00F1138066
:104DA0001CF5000F58BFBCF5000F01D488427047B6
:104DB00007D710F5000F58BF11F5000F15D4884222
:104DC0007047894270471CF5000F04D5BCF5000FF1
:104DD000F7D5814270474FF0807C1CEB400F38BF05
:104DE0001CEB410F01D28142704710B500F089F8E9
:104DF000922449004FF000504FF08051FFF76ABEF7
:104E00004FF47F0C1CEAD0121EBF1CEAD11392EAA9
:104E10000C0F93EA0C0F00F0478090EA010F48BF97
:104E200042F480724FF0004C4CEA00204CEA012121
:104E300002EB0302A0FB0113A2F50002002918BF38
:104E400043F001035B0028BF4FEA330342EB2242E9
:104E50005FEA132C4CEBC2502EBFBCEB436FB2F594
:104E60007C0F70474FEA036CBCF1004F08BF20F085
:104E70000100B2F57C0F38BF70470BD582F0FF02FE
:104E800012F5803FC8BF704700F1C040D8BF00F0A6
:104E90000040704700F5000C5FEA4C0C48BF7047BB
:104EA000B0F1C04000F073B80CEAD11390EA010FE2
:104EB00048BF42F48072624538BF634504D280EA3D
:104EC000010000F00040704710B500F01AF800BF74
:104ED0008900013E00F007B800F009B85FEA410C14
:104EE0005FEA1C6C08D080EA010000F050B85FEA6D
:104EF000400C5FEA1C6CF6D14FF00040A0F580003A
:104F000070470EF1020E2EF0030E5EF8044B2442A1
:104F100004D44FEA4102B2F17F4F11D84FEA400367
:104F2000B3F17F4F0CD80ED14FEAD07C0CEB4C0C78
:104F30000CF1020CB2F17F4F08BF4CEBD17C04E0C6
:104F40004FF0080C01E04FEAD17C0CEB4C0324FA43
:104F500003F404F00704B4F1040C06D20EEB840C45
:104F6000BDE810404CF0010C6047DFE80CF007088A
:104F700002024FF00040A0F5800010BD084642003C
:104F800018BFD2F1807288BF00F0004010BDFF2131
:104F900041EAD050C005704790EA010F48BF81F048
:104FA00000413FF5E8AC421A04D882F00042A0EB81
:104FB000020011444FEAD052A2EBD1534FF07F4C84
:104FC0001CEA410F18BF9CEA026F4AD04FF0004C18
:104FD0004CEA00204CEA012121FA03FCB0EB0C0C56
:104FE0000FD412F0FE0F36D05FEA4C001DD5001230
:104FF00040EBC25038BF70471CF03F0F18BF7047DE
:105000000BE05FEA1C20A2F1010240EBC25038BF66
:1050100070471CF07F0F18BF7047C3F12003994001
:1050200014BF401E20F0010070474FEA1223800891
:1050300008BF7047B0FA80FCA2EB0C02CCF1280C40
:1050400060FA0CF093EA122F04BF00EBC2507047D5
:105050004FEAC3707047130A5FEADC1008BF70475D
:10506000F6E79CEA026F04D010EA5C0F08BF00204C
:10507000704710B5FFF745FF40DFF63E81F0004076
:105080007047FBF7E1BDFBF715BF00000000000013
:105090000000000030313233343536373839414280
:1050A000434445464030580030313233343536378A
:1050B0003839616263646566403078000400000836
:1050C000000000000000000200010000103031323A
:1050D0003334353637383961626364656678700019
:1050E000303132333435363738394142434445461E
:1050F0005850000002400000000000A00000000026
:1051000005400000000000C8000000000C40000046
:105110000000409C00000000194000000020BCBEC0
:105120000000000034400000BFC91B8E00000004D6
:10513000B5400000504BCFD06607E2CF0100000021
:105140006C4100003E8251AADFEEA734010000004E
:10515000D9420000DCB5A0E23A301F97FFFFFFFF05
:10516000B4450000FD25A0C8E9A3C14FFFFFFFFF24
:10517000FF3F00000000008000000000FF3F000033
:10518000000000800000000002040608000000008B
:10519000010203040102030406070809EFBC8C00A6
:1051A00000000000000000000000000000000000FF
:1051B000000058380000000000000000000000005F
:1051C000E3808200000000000000000000000000FA
:1051D0000000000000001824241800000000000057
:1051E00000000000EFBC9A0000000000000000007A
:1051F0000000000000000000000036360000000043
:105200000000000000000000E2848300060909E6B7
:10521000F80C040202020202041E00000000000753
:105220001F3020404040404020100000E699BA0066
:10523000109453321E325210007E4242427E0000D1
:10524000000000FF49494949494949FF0000000061
:10525000E883BD0008CC4A49484ACC18007F8888BA
:105260008482E00000FF121252927F00007E888844
:105270008482E000E6B0B40000202020A06000FF9F
:105280006080402018000000201008060140807F48
:105290000001020408101000E69DAF001010D0FFBE
:1052A0005090040484E41C8404040400040300FFFC
:1052B0000004020100FF000001060000E8B4A8009D
:1052C0000000FE121292929292FF91919191100021
:1052D00080601F80805F4020100E1010205F8000D3
:1052E000E9878F00202020BEAAAAAAAAAAAAAABE3D
:1052F00020202000008080AFAAAAAAFFAAAAAAAFF5
:1053000080800000E6B8A9001060028C0000FE92C8
:1053100092929292FE00000004047E01407E42427E
:105320007E427E42427E400000000000FF010101FB
:105330003109090909897101010101FFFF8080809C
:105340008080809681808080808080FF00000000C7
:1053500000000000002F00000000070007000014FC
:105360007F147F1400242A7F2A120023130864620A
:1053700000364955225000000007000000001C22A2
:105380004100000041221C000014083E08140008DF
:10539000083E0808000000A060000008080808088F
:1053A000000060600000002010080402003E514927
:1053B000453E0000427F40000042615149460021C5
:1053C00041454B31001814127F10002745454539DF
:1053D000003C4A494930000171090503003649493A
:1053E000493600064949291E0000363600000000F3
:1053F000563600000008142241000014141414143E
:10540000000041221408000201510906003E4955DE
:10541000592E007C1211127C007F49494936003E0A
:1054200041414122007F4141221C007F49494941BD
:10543000007F09090901003E4149497A007F0808B7
:10544000087F0000417F4100002040413F01007F74
:1054500008142241007F40404040007F020C027F40
:10546000007F0408107F003E4141413E007F090952
:105470000906003E4151215E007F09192946004678
:10548000494949310001017F0101003F4040403F4F
:10549000001F2040201F003F4038403F0063140899
:1054A0001463000708700807006151494543000074
:1054B0007F414100000204081020000041417F00AC
:1054C000000402010204004040404040000001028C
:1054D0000400002054545478007F48444438003875
:1054E0004444442000384444487F003854545418FD
:1054F00000087E0901020018A4A4A47C007F08040F
:1055000004780000447D4000004080847D00007FDE
:10551000102844000000417F4000007C04180478FB
:10552000007C0804047800384444443800FC2424F7
:1055300024180018242418FC007C080404080048DF
:105540005454542000043F444020003C4040207C00
:10555000001C2040201C003C4030403C00442810EF
:105560002844001CA0A0A07C004464544C440000CB
:10557000087F41000000007F00000000417F08001C
:1055800000080408100800000000000000000000EF
:10559000000000000000000000F800000000000013
:1055A00000333000000000160E00160E0000000050
:1055B00000000000000040C07840C0784000043F78
:1055C00004043F040400007088FC08300000001848
:1055D00020FF211E0000F008F000E018000000216C
:1055E0001C031E211E0000F00888700000001E2110
:1055F000232419272110000000160E0000000000CF
:10560000000000000000000000E01804020000009C
:1056100000071820400000020418E00000000040CD
:10562000201807000000404080F080404000020247
:10563000010F01020200000000F000000000010163
:10564000011F01010100000000000000000000B087
:1056500070000000000000000000000000000001D9
:105660000101010101010000000000000000003004
:10567000300000000000000000008060180400609E
:1056800018060100000000E010080810E000000FFC
:10569000102020100F00001010F800000000002063
:1056A000203F2020000000700808088870000030AB
:1056B0002824222130000030088888483000001853
:1056C000202020110E000000C02010F8000000076C
:1056D0000424243F240000F80888880808000019E2
:1056E000212020110E0000E0108888180000000F13
:1056F000112020110E0000380808C83808000000EA
:10570000003F000000000070880808887000001C3E
:10571000222121221C0000E010080810E0000000F7
:10572000312222110F00000000C0C0000000000064
:10573000003030000000000000C0C0000000000089
:1057400080B07000000000008040201008000001C0
:105750000204081020004040404040404000040443
:10576000040404040400000810204080000000200D
:10577000100804020100007048080808F00000004A
:10578000003036010000C030C828E810E0000718DB
:10579000272423140B000000C038E0000000203C48
:1057A00023020227382008F8888888700000203FEC
:1057B000202020110E00C030080808083800071803
:1057C00020202010080008F808080810E000203FFA
:1057D000202020100F0008F88888E8081000203FDB
:1057E00020202320180008F88888E8081000203FAF
:1057F000200003000000C030080808380000071827
:105800002020221E020008F808000008F808203FA7
:10581000210101213F20000808F8080800000020AD
:10582000203F2020000000000808F8080800C08081
:1058300080807F00000008F888C028180800203FFA
:1058400020012638200008F8080000000000203F52
:1058500020202020300008F8F800F8F80800203F49
:10586000003F003F200008F830C00008F808203F43
:10587000200007183F00E01008080810E0000F1093
:10588000202020100F0008F808080808F000203F2A
:10589000210101010000E01008080810E0000F18C5
:1058A000242438504F0008F8888888887000203FEA
:1058B0002000030C302000708808080838000038E9
:1058C000202121221C00180808F8080818000000F0
:1058D000203F2000000008F808000008F808001F1A
:1058E000202020201F000878880000C83808000009
:1058F00007380E010000F80800F80008F800033C23
:105900000700073C030008186880806818082030EA
:105910002C03032C30200838C800C83808000000C9
:10592000203F2000000010080808C8380800203870
:10593000262120201800000000FE020202000000C4
:10594000007F40404000000C30C00000000000001C
:1059500000010638C00000020202FE000000004004
:1059600040407F00000000201008040810200000C4
:105970000000000000000000000000000000808027
:105980008080808080800002040800000000000009
:1059900000000000000000008080808000000019EE
:1059A000242222223F2008F8008080000000003FCF
:1059B000112020110E000000008080800000000EE9
:1059C000112020201100000000808088F800000EC7
:1059D000112020103F200000808080800000001FE8
:1059E000222222221300008080F08888881800205C
:1059F000203F202000000000808080808000006B1D
:105A000094949493600008F8008080800000203F08
:105A1000210000203F200080989800000000002016
:105A2000203F20200000000000809898000000C067
:105A30008080807F000008F8000080808000203F88
:105A400024022D302000000808F80000000000208B
:105A5000203F202000008080808080808000203FC8
:105A600020003F20003F0080800080800000002058
:105A70003F2100203F200000808080800000001F28
:105A8000202020201F00808000808000000080FFF8
:105A9000A12020110E000000008080808000000EF8
:105AA000112020A0FF808080800080808000202046
:105AB0003F212000010000008080808080000033B2
:105AC000242424241900008080E08080000000004D
:105AD000001F202000008080000000808000001F48
